:100000003BC060C153C052C051C050C04FC04EC071
:100010004DC04CC04BC04AC049C048C047C046C094
:1000200045C044C043C004030904180372006100C2
:10003000700068006E00650074002E006E006500A0
:1000400074001203550053004200540065006E0016
:100050006B00690012010101FF0000088117980A76
:1000600004010102030109021200010100803209AA
:10007000040000000000000011241FBECFE5D4E002
:10008000DEBFCDBF10E0A0E6B0E0E8EBF8E102C0D3
:1000900005900D92A238B107D9F710E0A2E8B0E0C0
:1000A00001C01D92AA3CB107E1F79BC3A9CF82E82A
:1000B00090E08093AE000B968093AD0085B783608F
:1000C00085BF8BB780648BBF08950F931F93CF9329
:1000D000DF938091B300882309F493C0982F935045
:1000E00097FD8DC08091AD00282F2F5FE901809191
:1000F000B0008D3209F07DC0983009F07AC0888157
:10010000807609F068C02BEA30E01092AB0089815C
:10011000882341F41092AC003093B2002093B100D8
:1001200092E006C0853031F48A818093B40090E07B
:1001300020E857C08630B9F58B81813019F484E509
:1001400090E021C0823019F486E690E01CC0833034
:1001500009F045C08A81882341F486E290E09093BB
:10016000B2008093B10094E03BC0813041F48AE258
:1001700090E09093B2008093B10098E131C082305A
:1001800041F482E490E09093B2008093B10092E158
:1001900027C0833021F582E690E09093B2008093EF
:1001A000B1009EE0C5CF883039F486EB90E09093A3
:1001B000B2008093B1000DC0893021F48A81809310
:1001C000B600B5CF8A3009F0B2CF3093B200209399
:1001D000B10091E0ADCFCE012ED3982FA9CF90E002
:1001E00020EC8F81882339F48E81891720F4982F91
:1001F00002C090E020E82093980090936000109255
:10020000B300909160009F3F09F440C0809161006D
:1002100084FF3CC0692F993008F068E0961B9093EA
:1002200060008091980080FF02C003EC01C00BE4E5
:100230008F5F80939800E091B100F091B20086FD4D
:1002400004C0962FA3EAB0E00CC0962FA3EAB0E05A
:1002500003C084918D9331969150D8F704C0819159
:100260008D939150E0F7F093B200E093B1007727BF
:10027000162F83EA90E0C9D1183018F48FEF8093DD
:1002800060000093A2001C5F1093610080B3857032
:1002900019F01092990011C080919900882369F497
:1002A00094E680B3857049F49150D9F781E080934A
:1002B00099001092B4001092AF00DF91CF911F917E
:1002C0000F9108950F930FB70F93809BFECF809BE4
:1002D00006C0809B04C0809B02C0000000C01F932A
:1002E0003F932F9331E014E000B3102710FD32E06C
:1002F000102F3A95C9F700FDE3C000B3102720E0A6
:1003000010FB20F9DF9310B3012700FB21F9CF93F5
:10031000C091AE0000B3102710FB22F93BE0D0E003
:100320004F9310B3012700FB23F94FEF000055C096
:10033000809BFECF809B06C0809B04C0809B02C038
:10034000000000C0DF9100C0CDCF10B3157079F16F
:100350004F7D206213C000B3057049F14F7B2064CC
:1003600015C0057021F1102F206800B319C000B32B
:100370000570E9F04E7F216018C039F300B30570B5
:10038000B1F0102710FB26F9223028F310B3012713
:1003900000FB27F9422749934FEF00B3243008F3BD
:1003A000102710FB20F9297F11F310B31570E1F12C
:1003B000012700FB21F9237FF1F000B30570A1F1C3
:1003C000102710FB22F9277EE1F010B3012700FB74
:1003D00023F93A9541F12F7CD1F000B3057021F15A
:1003E000102710FB24F92F79C1F010B3012700FB6F
:1003F00025F92F73C2CF10B31570B1F04D7F226075
:10040000DCCF00B3057081F04B7F2460DECF10B3EA
:10041000157051F0477F2860E0CF00B3057021F0E0
:100420004F7E2061E2CF3BC03C2FC091AE003C1B11
:1004300000E433300ABF98F108811981412F1F77FA
:100440002091AF000D3279F1013E69F10936C1F01A
:100450000777033421F51091B500112301F10091C4
:10046000B3000030C1F53430C2F13093B3001093C3
:10047000B0000091AD00C093AD000093AE002DC060
:10048000121769F43091610034FD23C00AE500932E
:100490006100C2EAD0E025C000270093B5004F916B
:1004A000CF91DF910DC01217B9F70093B5000AE59F
:1004B000009361004F91CF910AB706FD39CFDF91CC
:1004C00000E40ABF2F913F911F910F910FBF0F9131
:1004D0001895432F03C04AE501C042EDC4E1D0E0C6
:1004E00032E05F9355E0909A02B3889A8A9A20E8A6
:1004F0000FC0052710E002BB10C0052710E00894CC
:1005000002BB13C0052710E015C0052710E019C075
:1005100020FF052702BB279517951C3F50F720FFAA
:100520000527279502BB17951C3F38F720FF0527A5
:100530002795179502BB1C3F28F720FF0527279515
:1005400017951C3F02BB08F700C0499120FF052703
:1005500002BB279517951C3F80F520FF052727959F
:1005600002BB17951C3F68F520FF052727951795B7
:1005700002BB1C3F58F520FF0527279517951C3F08
:1005800002BB38F5242F3A9519F60A7F5F9102BB1A
:1005900032E03A95F1F71091B400C651D04011F015
:1005A0001093AF00016011B31A7F02BB0A7F4F9115
:1005B000CF9111BB02BBDF9183CF052710E002BBB7
:1005C000CACF052710E0089402BBCDCF052710E065
:1005D000CFCF052710E0D3CFA82FB92F8FEF9FEFF4
:1005E00041E050EA615070F02D9138E0722F782789
:1005F00096958795269570FF02C0842795273A9592
:10060000A9F7F0CF809590950895E6DF8D939D939F
:100610000895FC0197FD05C0069718F4E954FF4FB3
:10062000678308958091BE00992790936500809319
:1006300064008091BF0099279093670080936600C3
:100640008091C00099279093690080936800809101
:10065000C100992790936B0080936A008091C2003B
:10066000992790936D0080936C008091C300992727
:1006700090936F0080936E0008958BD18091BE009F
:10068000992790936500809364008091BF0099271B
:1006900090936700809366008091C00099279093A3
:1006A0006900809368008091C100992790936B0046
:1006B00080936A008091C200992790936D00809387
:1006C0006C008091C300992790936F0080936E0017
:1006D000089585B3806385BB8FEF80B981B18C7F2E
:1006E00081B908950F931F93982FFA01D8016115CE
:1006F000710531F42115310571F52FEF3FEF5FC022
:1007000084EA86BF06B607FEFDCF81B1887F8830B8
:1007100019F021E030E053C0892F880F83B984E8B5
:1007200086BF06B607FEFDCF81B1887F883109F00C
:1007300042C044E807C0808183B946BF06B607FEC1
:10074000FDCF3196615070408FEF6F3F780799F77A
:100750002115310559F184EA86BF06B607FEFDCFA3
:1007600081B1803119F023E030E027C0990F91600A
:1007700093B984E886BF06B607FEFDCF81B1803409
:1007800079F024E030E019C02115310511F084EC36
:1007900001C084E886BF06B607FEFDCF83B18D9306
:1007A000215030408FEF2F3F380771F784E986BF23
:1007B00020E030E004C022E030E084E986BFC901D7
:1007C0001F910F910895FC0190E002C0819198273C
:1007D000615070408FEF6F3F7807C1F7892F9927DD
:1007E0000895CFE5D4E0DEBFCDBF88E190E02EE0F4
:1007F0000FB6F894A89581BD0FBE21BD8FEF85BBC4
:1008000014BAFDD0CED00EDF64DF86D1892B09F07B
:10081000FFCF88EF82BB85E081BB9EEF8FEF9150C9
:10082000F1F78150E1F781B38A7F81BB40DC789496
:10083000A8954BDCFDCF0F931F93CF93DF93EC0173
:10084000109270006CD1DC019C012A5F3F4F6AE975
:1008500070E07093B2006093B1000981003181F0C3
:10086000013138F4013009F443C0023009F089C085
:1008700057C0003F09F462C0013F09F082C06AC05E
:100880008A819927821793070CF07BC000939A0006
:100890002A81822F99278A179B0784F04AE050E02B
:1008A00065E070E0822F8A1BAFD0292F3327209379
:1008B0009B0080939C00C2E0D0E00CC06F5F7F4F34
:1008C000822F33D1EC0197FF05C010929A0081E08E
:1008D00090E059C08E010F5F1F4FB8018AE990E088
:1008E00072DF06561F4FF8018083CE0102964BC07F
:1008F0008A819927821793070CF043C000939A00CE
:100900008A81E82FFF27EA17FB0734F0EA1BFB0B6D
:10091000E954FF4F858501C005D180939B0004C039
:1009200000939A0020939B0062E070E08AE990E0D7
:100930004ADF80939C0083E090E025C08A818F3F4E
:1009400011F49BDE03C06B81992763DE80EF8093F7
:100950009A000DC08A81E82FFF27E630F1058CF45C
:10096000E954FF4F8B81858714D000939A0061E092
:1009700070E08AE990E027DF80939B0082E090E0BE
:1009800002C080E090E09927DF91CF911F910F91F5
:10099000089583E1E7EBF0E0A0E0B0E0182E73D714
:1009A0000895CF93DF9383E1C7EBD0E0A0E0B0E000
:1009B000FE01182E63D747E050E061E770E0CE01FA
:1009C000F0D6892BC9F09E01E1E7F0E087E00190C5
:1009D000D9010D929D018150D1F746E050E06FE3BF
:1009E00070E08EEB90E0EAD646E050E06FEF70E00A
:1009F00084EC90E0E3D6CDDFDF91CF91089580E4E1
:100A000087B987E886B908954F925F926F927F9277
:100A10008F929F92AF92BF92CF92DF92EF92FF920E
:100A20000F931F93CF93DF93EB012A01863018F0C9
:100A30008FEF9FEF60C0806487B988249924AA242F
:100A4000BB2465016624772444C0369A349BFECFCC
:100A500084B1882E992485B19927982F8827882AD0
:100A6000992AB201882777FD8095982FACD320E092
:100A700030E84BE355E4FBD17B018C0120E030E012
:100A800040E85FE36FD388231CF4E1E0F0E010C09E
:100A900020E03FEF4FE757E4C801B70101D3181634
:100AA0001CF4E0E0F0E004C0C801B70141D0FB0154
:100AB000C40126E0880F991F2A95E1F7AA27BB27D2
:100AC000A80EB91ECA1EDB1E3197F1F70894611CEF
:100AD000711C6C167D060CF4B8CFC130D10511F431
:100AE000C40109C09E01442737FD4095542FC6011B
:100AF000B5016BD6C901DF91CF911F910F91FF9086
:100B0000EF90DF90CF90BF90AF909F908F907F90AD
:100B10006F905F904F90089580E090E0089580E09E
:100B200090E008958FEF90E008958FEF9FEF089584
:100B3000EF92FF920F931F937B018C0120E030E036
:100B400040E05FE4DED288236CF020E030E040E05B
:100B50005FE4C801B70139D19CD360507040804038
:100B6000904803C0C801B70194D31F910F91FF9023
:100B7000EF900895A0E0B0E0EFEBF5E04CC6FC018B
:100B80006A019081923008F41BC1DB018C918230A4
:100B900080F0943061F4843009F012C19181EB014E
:100BA0008981981709F40CC1EAE7F0E009C18430A3
:100BB00011F4FB0105C1823091F4923009F000C1BB
:100BC000EA01DF0188E00D9009928150E1F781810F
:100BD000FB0191818923E6018983F601F1C09230FE
:100BE00041F362807380EB018A809B80E480F58012
:100BF000068117812C813D814E815F815301A818A8
:100C0000B908C501B7FCABC080970CF457C0861477
:100C100097040CF4BEC03401EE24FF2487019181B7
:100C2000FB018181981709F4A6C0992309F49CC09F
:100C30002E193F09400B510B57FDB0C0E601198238
:100C40007B826A82F6012483358346835783E601DB
:100C50002C813D814E815F8179018A01DA01C901D0
:100C60000197A109B1098F5F9F4FAF4FBF43F8F4C0
:100C7000E6016A817B81A8019701220F331F441F7F
:100C8000551F6150704079018A01DA01C90101974D
:100C9000A109B1098F5F9F4FAF4FBF4360F3E601DA
:100CA0007B836A83F601248335834683578383E0FD
:100CB000D6018C9357FD39C0F60182C08614970483
:100CC000B4F4C0E0D0E0DA01C90181709070A07086
:100CD000B0705695479537952795282B392B4A2B79
:100CE0005B2B2196CA15DB0571F78C0E9D1E6814CF
:100CF00079040CF094CFC0E0D0E05401A618B708F6
:100D0000D801C70181709070A070B07016950795DA
:100D1000F794E794E82AF92A0A2B1B2B2196AC16A4
:100D2000BD0671F76C0E7D1E7ACFDA01C901B6954A
:100D3000A795979587952170307040705070282B3B
:100D4000392B4A2B5B2BE6012C833D834E835F833B
:100D50008A819B8101969B838A83F60131C0882713
:100D600099278A199B0950CFE21AF30A040B150B35
:100D7000A801970161CFE60199837B826A822E0DDB
:100D80003F1D401F511FF60124833583468357833F
:100D90008ECF20E030E040E050E041CF81E0E6013E
:100DA00089837B826A8250954095309521953F4F8B
:100DB0004F4F5F4FF601248335834683578347CFD8
:100DC000CF01EEE0CDB7DEB742C5A0E2B0E0EAEE7B
:100DD000F6E029C569837A838B839C832D833E83C8
:100DE0004F83588789E0E82EF12CEC0EFD1EB701E9
:100DF000CE010196CFD38E010F5E1F4FB801CE01F9
:100E00000596C8D38A8991E089278A8BAE01475E0F
:100E10005F4FB801C701AEDE89D2E6E0A0961FC5DC
:100E2000A0E2B0E0E5E1F7E0FEC469837A838B835A
:100E30009C832D833E834F83588799E0E92EF12CC4
:100E4000EC0EFD1EB701CE010196A4D38E010F5EFC
:100E50001F4FB801CE0105969DD3AE01475E5F4F8F
:100E6000B801C70187DE62D2E6E0A096F8C4A0E22E
:100E7000B0E0ECE3F7E0CBC469837A838B839C8397
:100E80002D833E834F8358878E01075F1F4FB80124
:100E9000CE0101967FD3F1E1EF2EF12CEC0EFD1E79
:100EA000B701CE01059676D38985823078F099898D
:100EB000923040F420E09A858A89981321E02A8BA9
:100EC000B701E9C0843051F4923061F020E09A8596
:100ED0008A89981321E02A87B801DDC0943029F46B
:100EE000823041F76AE770E0D6C0823079F3923001
:100EF00009F32D853E854F8558898D899E89AF8957
:100F0000B88D222433242101AA24BB246501EE24B8
:100F1000FF24870160E070E00DC06F5F7F4F60329B
:100F2000710599F1880F991FAA1FBB1F5695479508
:100F30003795279520FF19C0280E391E4A1E5B1EC3
:100F4000662477244301281639064A065B0628F4EE
:100F5000E1E06E2E712C812C912CAE0CBF1CC01EBA
:100F6000D11EA60CB71CC81CD91CEE0CFF1C001F00
:100F7000111FB7FFD2CFE1E06E2E712C812C912C86
:100F8000E628F72808291929C8CF8B859C852B8945
:100F90003C89820F931F02969C8F8B8F1A8E9A85A5
:100FA0008A89981711F081E08A8FD7FE17C08B8D40
:100FB0009C8DA0FE0CC0569447943794279420E053
:100FC00030E040E050E8222A332A442A552AD694B9
:100FD000C794B794A79401969C8F8B8F30E0A3168B
:100FE00030E0B30630E0C30630E4D30618F58B8D4D
:100FF0009C8D0EC0220C331C441C551C019720E014
:10100000A21620E0B20620E0C20620E4D20680F458
:10101000AA0CBB1CCC1CDD1C57FEECCF31E0632EB0
:10102000712C812C912CA628B728C828D928E2CF6A
:101030009C8F8B8FD601C5018F779070A070B07098
:1010400080349105A105B10551F0AD8EBE8ECF8ED5
:10105000D8A283E0898FBE01675E7F4F1CC0A7FCCA
:10106000F4CF211431044104510479F380E490E079
:10107000A0E0B0E0A80EB91ECA1EDB1E80E8682EF4
:101080008FEF782E8FEF882E8FEF982EA620B72027
:10109000C820D920DACFCB0149D1E2E1A096D3C351
:1010A000A8E1B0E0E5E5F8E0BEC369837A838B830D
:1010B0009C832D833E834F83588789E0E82EF12C53
:1010C000EC0EFD1EB701CE01019664D28E010F5EBB
:1010D0001F4FB801CE0105965DD28985823018F484
:1010E0002FEF3FEF0AC089898230D0F3B801C701E2
:1010F000F0D2282F332727FD3095C901E6E0689606
:10110000AEC3A8E1B0E0E6E8F8E08DC369837A8376
:101110008B839C832D833E834F83588789E0E82E01
:10112000F12CEC0EFD1EB701CE01019633D28E01DB
:101130000F5E1F4FB801CE0105962CD289858230F3
:1011400018F42FEF3FEF0AC089898230D0F3B8013D
:10115000C701BFD2282F332727FD3095C901E6E00C
:1011600068967DC3A8E1B0E0E7EBF8E05CC3698373
:101170007A838B839C832D833E834F83588789E0BA
:10118000E82EF12CEC0EFD1EB701CE01019602D225
:101190008E010F5E1F4FB801CE010596FBD18985E8
:1011A000823018F08989823018F421E030E007C0DD
:1011B000B801C7018ED2282F332727FD3095C901EA
:1011C000E6E068964CC3A8E0B0E0E8EEF8E02EC395
:1011D0009B01AC0183E089831A8257FD50C0211521
:1011E00031054105510531F482E08983CE01019634
:1011F0009DD04CC0EEE1F0E0FC83EB838A81882334
:10120000C9F1203010E0310710E0410710E8510724
:10121000C9F188279927DC01821B930BA40BB50B1E
:101220008D839E83AF83B8872D813E814F81588502
:10123000203080E0380780E0480780E45807B0F6A7
:10124000EB81FC81DA01C901880F991FAA1FBB1F1E
:1012500031979C01AD01803010E0910710E0A107AB
:1012600010E4B10778F3FC83EB838D839E83AF8317
:10127000B887BCCF2D833E834F835887D5CF81E07D
:101280008A83ADCF60E070E080E09FECE3E02896D9
:10129000E9C2ACE0B0E0EEE4F9E0C9C269837A8368
:1012A0008B839C83BE016B5F7F4FCE01019672D111
:1012B0008D81823061F0823050F0843069F48E810B
:1012C000882359F52FEF3FEF4FEF5FE72AC020E06B
:1012D00030E040E050E025C02F81388537FDF7CF62
:1012E0002F31310564F78EE190E0821B930B298545
:1012F0003A854B855C8504C056954795379527956B
:101300008A95D2F78E81882361F05095409530956B
:1013100021953F4F4F4F5F4F04C020E030E040E049
:1013200050E8CA01B901E2E02C969DC24F925F924B
:101330006F927F928F929F92AF92BF92DF92EF92C5
:10134000FF920F931F9320E030E040E050E0FC015B
:10135000E480F58006811781D1808081823038F465
:10136000D801C701A061AF77B0706FEFEFC08430D4
:1013700009F474C0823009F477C0E114F104010566
:10138000110509F471C0828193816FEF823896074D
:101390000CF070C062E87FEF681B790B6A31710551
:1013A0000CF08FC047015801062E04C0B694A794D4
:1013B000979487940A94D2F744245524320181E00B
:1013C00090E0A0E0B0E004C0880F991FAA1FBB1FE7
:1013D0006A95D2F70197A109B109E822F9220A23F7
:1013E0001B23E114F1040105110529F0B1E04B2E96
:1013F000512C612C712C85017401E428F5280629F3
:101400001729D801C7018F779070A070B070803411
:101410009105A105B10509F466C0D801C701CF96B1
:10142000A11DB11D60E070E08030E0E09E07E0E0CB
:10143000AE07E0E4BE0710F061E070E0FB01BC0124
:10144000CD01F7E09695879577956795FA95D1F751
:10145000DC01CB01AF77B0706E2F78C080E090E0F8
:10146000A0E0B0E06FEF72C080E090E0A0E0B0E0FC
:1014700060E06CC0803891058CF7BC0161587F4FEB
:10148000D801C7018F779070A070B070803491053B
:10149000A105B105E9F08FE390E0A0E0B0E0E80E2F
:1014A000F91E0A1F1B1F17FD38C0D801C70127E00E
:1014B000B695A795979587952A95D1F7AF77B07090
:1014C00045C0E0E0F0E060E070E080E090E0C0CF98
:1014D000E7FEE9CF80E490E0A0E0B0E0E80EF91E7E
:1014E0000A1F1B1FE0CFE7FC1FC080E090E060E018
:1014F000E61660E0F60660E0060760E4160710F006
:1015000081E090E0FC01C801B701A7E096958795BE
:1015100077956795AA95D1F79BCF16950795F79480
:10152000E7946F5F7F4FC1CFD801C701805C9F4FA9
:10153000AF4FBF4F60E070E08030E0E09E07E0E03A
:10154000AE07E0E4BE0708F479CF76CF282F392F15
:101550008A2F8F774078482B862F87958827879505
:101560004F77482B66955078562BD794DD24D79427
:101570005F775D29CA01B9011F910F91FF90EF902C
:10158000DF90BF90AF909F908F907F906F905F9013
:101590004F900895FC01DB01208131819281492F18
:1015A0004F7750E0991F9927991F8381682F660F05
:1015B000692B881F8827881FFD018183662309F016
:1015C00049C0211531054105510509F470C082E873
:1015D0009FEFFD0193838283220F331F441F551F0A
:1015E000220F331F441F551F220F331F441F551F47
:1015F000220F331F441F551F220F331F441F551F37
:10160000220F331F441F551F220F331F441F551F26
:1016100083E08C932030F0E03F07F0E04F07F0E4E8
:101620005F0790F482E89FEF220F331F441F551F7E
:101630000197203060E0360760E0460760E4560717
:1016400098F3FD0193838283FD01248335834683D0
:10165000578308956F3F71F1862F99278F579040D8
:10166000FD019383828383E08C93220F331F441FF9
:10167000551F220F331F441F551F220F331F441FB6
:10168000551F220F331F441F551F220F331F441FA6
:10169000551F220F331F441F551F220F331F441F96
:1016A000551F50642483358346835783089582E011
:1016B0008C930895211531054105510519F484E0F5
:1016C0008C93089544FD02C01C92BECF81E08C93A0
:1016D000BBCFEF92FF920F931F93CF93DF93FC0149
:1016E000DB018081823050F09C91923038F0843060
:1016F00041F49430B1F08181882381F461E070E09D
:101700004BC09430E9F18230A1F09230A1F36181B5
:10171000ED018981681791F0662381F36FEF7FEF08
:101720003BC0EB018981682F77278181681B710994
:1017300033C0923059F560E070E02EC022813381D1
:10174000ED018A819B818217930734F328173907AB
:101750009CF0E480F58006811781FD0124813581AC
:10176000468157812E153F0540075107A8F2E21622
:10177000F30604071507F8F6662309F0BFCFCECFAE
:10178000FB018181882309F0B9CFC8CFEB018981A2
:10179000882309F0B3CFC2CFCB01E6E0CDB7DEB7E7
:1017A0005EC0FB01DC0104C08D910190801921F421
:1017B00041505040C8F7881B990B0895DC0101C0C7
:1017C0006D9341505040E0F70895A1E21A2EAA1BF4
:1017D000BB1BFD010DC0AA1FBB1FEE1FFF1FA217E1
:1017E000B307E407F50720F0A21BB30BE40BF50BDE
:1017F000661F771F881F991F1A9469F76095709567
:10180000809590959B01AC01BD01CF0108952F9269
:101810003F924F925F926F927F928F929F92AF9280
:10182000BF92CF92DF92EF92FF920F931F93CF93CD
:10183000DF93CDB7DEB7CA1BDB0B0FB6F894DEBF64
:101840000FBECDBF09942A88398848885F846E848A
:101850007D848C849B84AA84B984C884DF80EE80D4
:10186000FD800C811B81AA81B981CE0FD11D0FB6DD
:10187000F894DEBF0FBECDBFED01089509D00192EF
:101880001A94E1F7089501900BD01A94E1F70895A6
:10189000E199FECFBFBBAEBBE09A11960DB20895A1
:1018A000E199FECFBFBBAEBB0DBA11960FB6F8944F
:0818B000E29AE19A0FBE0895CF
:1018B800FF5A0E0341004200430044004500460021
:1018C8000154656E6B694366670000000000000004
:0218D80000000E
:00000001FF
