:100000003AC05CC153C052C051C050C04FC04EC076
:100010004DC04CC04BC04AC049C048C047C046C094
:1000200045C044C043C004030904140373006100C5
:10003000720069006D006B00680061006E001403BF
:1000400073006100720069006D002000750073008C
:10005000620012011001FF000008C016DC0500015B
:1000600001020001090212000101008019090400C7
:1000700000000000000011241FBECFE5D4E0DEBF69
:10008000CDBF10E0A0E6B0E0ECEAF5E002C00590DC
:100090000D92A236B107D9F710E0A2E6B0E001C098
:1000A0001D92AF38B107E1F757D27EC2A9CFCF93E7
:1000B000DF9380917500835087FD83C0909172001B
:1000C000209171002D3209F07AC0883009F077C094
:1000D000CCE0D0E0C91BD109C758DF4F83EC809337
:1000E00065008AE5809360001092620088818076C6
:1000F00019F0CE0110D25AC09A8110926E008981F7
:10010000882331F410926F002EE630E082E04AC07E
:10011000853019F4909376003BC0863081F58B8151
:10012000813019F482E590E004C0823041F484E625
:1001300090E0909374008093730082E11CC0833040
:10014000C9F4992341F486E290E09093740080937F
:10015000730084E010C0913019F48AE290E004C08A
:10016000923041F48EE390E090937400809373009A
:1001700084E101C080E090E49093620017C0883071
:1001800059F0893019F49093780002C08A3039F020
:100190002EE630E080E006C028E730E002C02EE620
:1001A00030E081E030937400209373009F819923A5
:1001B00021F49E81981708F4892F80936100109292
:1001C00075008091600084FF4CC0809161008F3F7A
:1001D00009F447C0C82F893008F0C8E08C1B809311
:1001E00061008091650098E8892780936500CC23A1
:1001F00061F18091730090917400309162002C2F16
:10020000215036FF0EC030E0A90149595F4FFC0173
:10021000A6E6B0E064916D933196A417B507D1F7C7
:100220000CC0DC0130E0A90149595F4FE6E6F0E07F
:100230006D916193E417F507D9F72F5F3F4F280FB2
:10024000391F309374002093730086E690E06C2F82
:1002500031D0CC5FCC3019F08FEF80936100C09328
:10026000600084E190B3957031F48150D9F7109219
:10027000760010927000DF91CF91089585B782606B
:1002800085BF8BB780648BBF0895A82FB92F80E0FE
:1002900090E041E050EA609530E009C02D9182275E
:1002A0009795879510F084279527305EC8F36F5F88
:1002B000A8F30895EADF8D939D930895CF93CFB768
:1002C000CF93C395809BE9F7809B09C0809B07C0B3
:1002D000809B05C0809B03C0809B01C0A1C0DF93B1
:1002E000C0917200DD27C758DF4F809B02C0DF91AD
:1002F000EBCF2F930F931F9300B32FEF00FB20F949
:100300004F933F9310B34FEF012700FB21F93BE0E0
:1003100031C04E7F012F10B3216028C0102F4D7FB8
:100320002260000000B329C04B7F2460012F000031
:1003300010B32BC010B3477F28602AC04F7E00B394
:1003400020612CC04F7D10B320622FC04F7B00B3C3
:10035000206432C0422700B349934FEF00001027BA
:1003600010FB20F910B31570C9F1297F91F2012714
:1003700000FB21F900B3237F89F2315058F1102797
:1003800010FB22F910B3277E79F2012700FB23F935
:100390002F7C81F200B3102710FB24F92F7971F222
:1003A00000C010B3012700FB25F92F7359F200C0DC
:1003B00000B3102710FB26F9223040F200C010B322
:1003C000012700FB27F9243028F64F77206810B367
:1003D0000000F9CF10E41ABF002717C03B50319539
:1003E000C31BD04010E41ABF0881033CE9F00B3472
:1003F000D9F0209170001981110F1213EDCF093639
:1004000041F10D3211F0013E39F7009377003F9131
:100410004F911F910F912F91DF91CAB7C6FD51CF18
:10042000CF91CFBFCF91189520917700222379F3F8
:1004300010917500112311F5343012F130937500CD
:1004400020937100109172003BE0311B30937200D9
:1004500017C00091750001308CF40AE530916000FE
:1004600034FD10C000936000C5E6D0E00FC02795B2
:10047000A8F45150A9F4220F0000F9CF4AE503C0B7
:1004800042ED01C0432FC4E1D0E032E011B315606A
:10049000909A11BB02B320E415E05F93012756E068
:1004A00002BB279520F4515021F4220FF9CF0127E8
:1004B00056E000003B5A02BBD0F2279528F4515079
:1004C00029F4220F0000F9CF012756E0279502BB3F
:1004D00020F4515021F4220FF9CF012756E0299141
:1004E000332302BB21F60A7F10917600110FC6510B
:1004F000D04002BB11F01093700010E41ABF0160ED
:1005000011B31A7F402F4A7F5F9100C000C002BB29
:1005100011BB42BB7CCFFC018181813029F081304D
:1005200028F08230B9F405C0C09A01C0C09880E0BC
:100530000895369A3699FECF84B195B180936300C1
:100540009093640083E690E090937400809373002E
:1005500082E0089580E0089583E087BB85E886B94E
:1005600085E087B92EE088E190E00FB6F894A89571
:1005700081BD0FBE21BD82DE88B392E0892788BB92
:10058000889A8AEFA895EFE6F7E13197F1F700C076
:1005900000008150B9F7889888B392E0892788BB1A
:0C05A0007894A89584DDFDCFF894FFCF7F
:0205AC005AFFF4
:00000001FF
