:1000000039C05DC152C051C050C04FC04EC04DC07C
:100010004CC04BC04AC049C048C047C046C045C09C
:1000200044C043C042C004030904140373006100C8
:10003000720069006D006B00680061006E001203C1
:10004000540065006D0070006C0061007400650074
:1000500012011001FF000008C016DC0500010102BA
:1000600000010902120001010080190904000000CA
:100070000000000011241FBECFE5D4E0DEBFCDBFDD
:1000800010E0A0E6B0E0E4E9F5E002C005900D92D2
:10009000A237B107D9F710E0A2E7B0E001C01D9286
:1000A000AD39B107E1F750D273C2AACF1F93CF93F6
:1000B000DF9380918300835087FD83C090918000FF
:1000C00020917F002D3209F07AC0883009F077C086
:1000D000CCE0D0E0C91BD109C957DF4F83EC809336
:1000E00073008AE5809360001092720088818076A8
:1000F00019F0CE0111D25AC09A8110927C008981E8
:10010000882331F410927D002CE730E082E04AC071
:10011000853019F4909384003BC0863081F58B8143
:10012000813019F480E590E01FC0823019F482E636
:1001300090E01AC08330F1F4992341F486E290E014
:10014000909382008093810084E015C0913041F447
:100150008AE290E0909382008093810084E10BC05A
:10016000923041F48EE390E090938200809381007E
:1001700082E101C080E090E49093720017C0883063
:1001800059F0893019F49093860002C08A3039F012
:100190002CE730E080E006C026E830E002C02CE723
:1001A00030E081E030938200209381009F81992389
:1001B00021F49E81981708F4892F80936100109292
:1001C00083008091600084FF4CC0809161008F3F6C
:1001D00009F447C0182F893008F018E0811B80937C
:1001E00061008091730098E8892780937300112340
:1001F00061F1809181009091820030917200212FF5
:10020000215036FF0EC030E0A9014B585F4FFC0172
:10021000A4E7B0E064916D933196A417B507D1F7C8
:100220000CC0DC0130E0A9014B585F4FE4E7F0E07F
:100230006D916193E417F507D9F72F5F3F4F280FB2
:10024000391F309382002093810084E790E0612F72
:1002500032D01C5F1C3019F08FEF80936100109337
:10026000600084E190B3957031F48150D9F7109219
:10027000840010927E00DF91CF911F91089585B781
:10028000826085BF8BB780648BBF0895A82FB92F7C
:1002900080E090E041E050EA609530E009C02D91A7
:1002A00082279795879510F084279527305EC8F3AD
:1002B0006F5FA8F30895EADF8D939D930895CF9320
:1002C000CFB7CF93C395809BE9F7809B09C0809BF4
:1002D00007C0809B05C0809B03C0809B01C0A1C05C
:1002E000DF93C0918000DD27C957DF4F809B02C09C
:1002F000DF91EBCF2F930F931F9300B32FEF00FBF2
:1003000020F94F933F9310B34FEF012700FB21F9E2
:100310003BE031C04E7F012F10B3216028C0102F69
:100320004D7F2260000000B329C04B7F2460012F65
:10033000000010B32BC010B3477F28602AC04F7E47
:1003400000B320612CC04F7D10B320622FC04F7BC3
:1003500000B3206432C0422700B349934FEF00003E
:10036000102710FB20F910B31570C9F1297F91F205
:10037000012700FB21F900B3237F89F2315058F1A6
:10038000102710FB22F910B3277E79F2012700FB1A
:1003900023F92F7C81F200B3102710FB24F92F7969
:1003A00071F200C010B3012700FB25F92F7359F239
:1003B00000C000B3102710FB26F9223040F200C025
:1003C00010B3012700FB27F9243028F64F77206867
:1003D00010B30000F9CF10E41ABF002717C03B503C
:1003E0003195C31BD04010E41ABF0881033CE9F0EB
:1003F0000B34D9F020917E001981110F1213EDCF2B
:10040000093641F10D3211F0013E39F700938500B4
:100410003F914F911F910F912F91DF91CAB7C6FD68
:1004200051CFCF91CFBFCF91189520918500222336
:1004300079F310918300112311F5343012F13093C8
:10044000830020937F00109180003BE0311B3093AC
:10045000800017C00091830001308CF40AE53091D0
:10046000600034FD10C000936000C3E7D0E00FC00F
:100470002795A8F45150A9F4220F0000F9CF4AE5BE
:1004800003C042ED01C0432FC4E1D0E032E011B31C
:100490001560909A11BB02B320E415E05F93012729
:1004A00056E002BB279520F4515021F4220FF9CFDA
:1004B000012756E000003B5A02BBD0F2279528F4F2
:1004C000515029F4220F0000F9CF012756E027955B
:1004D00002BB20F4515021F4220FF9CF012756E03E
:1004E0002991332302BB21F60A7F10918400110F5A
:1004F000C651D04002BB11F010937E0010E41ABF29
:10050000016011B31A7F402F4A7F5F9100C000C085
:1005100002BB11BB42BB7CCFFC018181813029F041
:10052000813028F0823071F405C0A89A01C0A898E3
:1005300080E0089582E690E09093820080938100AD
:1005400080E1089580E0089583E084BB2EE088E197
:1005500090E00FB6F894A89581BD0FBE21BD8FDE47
:1005600085B392E0892785BB889A8AEFA895EFE644
:10057000F7E13197F1F700C000008150B9F7889892
:1005800085B392E0892785BB7894A8958FDDFDCF50
:04059000F894FFCF0D
:100594005AFF48656C6C6F2C2055534221000000B3
:0205A400000055
:00000001FF
